{
  "_format": "hh-sol-artifact-1",
  "contractName": "EducationalNFT",
  "sourceName": "contracts/EducationalNFT.sol",
  "abi": [
    {
      "inputs": [],
      "stateMutability": "nonpayable",
      "type": "constructor"
    },
    {
      "anonymous": false,
      "inputs": [
        {
          "indexed": true,
          "internalType": "address",
          "name": "owner",
          "type": "address"
        },
        {
          "indexed": true,
          "internalType": "address",
          "name": "approved",
          "type": "address"
        },
        {
          "indexed": true,
          "internalType": "uint256",
          "name": "tokenId",
          "type": "uint256"
        }
      ],
      "name": "Approval",
      "type": "event"
    },
    {
      "anonymous": false,
      "inputs": [
        {
          "indexed": true,
          "internalType": "address",
          "name": "owner",
          "type": "address"
        },
        {
          "indexed": true,
          "internalType": "address",
          "name": "operator",
          "type": "address"
        },
        {
          "indexed": false,
          "internalType": "bool",
          "name": "approved",
          "type": "bool"
        }
      ],
      "name": "ApprovalForAll",
      "type": "event"
    },
    {
      "anonymous": false,
      "inputs": [
        {
          "indexed": false,
          "internalType": "uint256",
          "name": "_fromTokenId",
          "type": "uint256"
        },
        {
          "indexed": false,
          "internalType": "uint256",
          "name": "_toTokenId",
          "type": "uint256"
        }
      ],
      "name": "BatchMetadataUpdate",
      "type": "event"
    },
    {
      "anonymous": false,
      "inputs": [
        {
          "indexed": true,
          "internalType": "uint256",
          "name": "tokenId",
          "type": "uint256"
        },
        {
          "indexed": true,
          "internalType": "address",
          "name": "student",
          "type": "address"
        },
        {
          "indexed": true,
          "internalType": "address",
          "name": "issuer",
          "type": "address"
        }
      ],
      "name": "CredentialIssued",
      "type": "event"
    },
    {
      "anonymous": false,
      "inputs": [
        {
          "indexed": true,
          "internalType": "address",
          "name": "issuer",
          "type": "address"
        }
      ],
      "name": "IssuerAuthorized",
      "type": "event"
    },
    {
      "anonymous": false,
      "inputs": [
        {
          "indexed": true,
          "internalType": "address",
          "name": "issuer",
          "type": "address"
        }
      ],
      "name": "IssuerRevoked",
      "type": "event"
    },
    {
      "anonymous": false,
      "inputs": [
        {
          "indexed": false,
          "internalType": "uint256",
          "name": "_tokenId",
          "type": "uint256"
        }
      ],
      "name": "MetadataUpdate",
      "type": "event"
    },
    {
      "anonymous": false,
      "inputs": [
        {
          "indexed": true,
          "internalType": "address",
          "name": "previousOwner",
          "type": "address"
        },
        {
          "indexed": true,
          "internalType": "address",
          "name": "newOwner",
          "type": "address"
        }
      ],
      "name": "OwnershipTransferred",
      "type": "event"
    },
    {
      "anonymous": false,
      "inputs": [
        {
          "indexed": true,
          "internalType": "address",
          "name": "from",
          "type": "address"
        },
        {
          "indexed": true,
          "internalType": "address",
          "name": "to",
          "type": "address"
        },
        {
          "indexed": true,
          "internalType": "uint256",
          "name": "tokenId",
          "type": "uint256"
        }
      ],
      "name": "Transfer",
      "type": "event"
    },
    {
      "inputs": [
        {
          "internalType": "address",
          "name": "to",
          "type": "address"
        },
        {
          "internalType": "uint256",
          "name": "tokenId",
          "type": "uint256"
        }
      ],
      "name": "approve",
      "outputs": [],
      "stateMutability": "nonpayable",
      "type": "function"
    },
    {
      "inputs": [
        {
          "internalType": "address",
          "name": "issuer",
          "type": "address"
        }
      ],
      "name": "authorizeIssuer",
      "outputs": [],
      "stateMutability": "nonpayable",
      "type": "function"
    },
    {
      "inputs": [
        {
          "internalType": "address",
          "name": "owner",
          "type": "address"
        }
      ],
      "name": "balanceOf",
      "outputs": [
        {
          "internalType": "uint256",
          "name": "",
          "type": "uint256"
        }
      ],
      "stateMutability": "view",
      "type": "function"
    },
    {
      "inputs": [
        {
          "internalType": "uint256",
          "name": "tokenId",
          "type": "uint256"
        }
      ],
      "name": "getApproved",
      "outputs": [
        {
          "internalType": "address",
          "name": "",
          "type": "address"
        }
      ],
      "stateMutability": "view",
      "type": "function"
    },
    {
      "inputs": [
        {
          "internalType": "uint256",
          "name": "tokenId",
          "type": "uint256"
        }
      ],
      "name": "getTokenIssuer",
      "outputs": [
        {
          "internalType": "address",
          "name": "",
          "type": "address"
        }
      ],
      "stateMutability": "view",
      "type": "function"
    },
    {
      "inputs": [
        {
          "internalType": "address",
          "name": "owner",
          "type": "address"
        },
        {
          "internalType": "address",
          "name": "operator",
          "type": "address"
        }
      ],
      "name": "isApprovedForAll",
      "outputs": [
        {
          "internalType": "bool",
          "name": "",
          "type": "bool"
        }
      ],
      "stateMutability": "view",
      "type": "function"
    },
    {
      "inputs": [
        {
          "internalType": "address",
          "name": "issuer",
          "type": "address"
        }
      ],
      "name": "isAuthorizedIssuer",
      "outputs": [
        {
          "internalType": "bool",
          "name": "",
          "type": "bool"
        }
      ],
      "stateMutability": "view",
      "type": "function"
    },
    {
      "inputs": [
        {
          "internalType": "address",
          "name": "student",
          "type": "address"
        },
        {
          "internalType": "string",
          "name": "uri",
          "type": "string"
        }
      ],
      "name": "issueCredential",
      "outputs": [
        {
          "internalType": "uint256",
          "name": "",
          "type": "uint256"
        }
      ],
      "stateMutability": "nonpayable",
      "type": "function"
    },
    {
      "inputs": [],
      "name": "name",
      "outputs": [
        {
          "internalType": "string",
          "name": "",
          "type": "string"
        }
      ],
      "stateMutability": "view",
      "type": "function"
    },
    {
      "inputs": [],
      "name": "owner",
      "outputs": [
        {
          "internalType": "address",
          "name": "",
          "type": "address"
        }
      ],
      "stateMutability": "view",
      "type": "function"
    },
    {
      "inputs": [
        {
          "internalType": "uint256",
          "name": "tokenId",
          "type": "uint256"
        }
      ],
      "name": "ownerOf",
      "outputs": [
        {
          "internalType": "address",
          "name": "",
          "type": "address"
        }
      ],
      "stateMutability": "view",
      "type": "function"
    },
    {
      "inputs": [],
      "name": "renounceOwnership",
      "outputs": [],
      "stateMutability": "nonpayable",
      "type": "function"
    },
    {
      "inputs": [
        {
          "internalType": "address",
          "name": "issuer",
          "type": "address"
        }
      ],
      "name": "revokeIssuer",
      "outputs": [],
      "stateMutability": "nonpayable",
      "type": "function"
    },
    {
      "inputs": [
        {
          "internalType": "address",
          "name": "from",
          "type": "address"
        },
        {
          "internalType": "address",
          "name": "to",
          "type": "address"
        },
        {
          "internalType": "uint256",
          "name": "tokenId",
          "type": "uint256"
        }
      ],
      "name": "safeTransferFrom",
      "outputs": [],
      "stateMutability": "nonpayable",
      "type": "function"
    },
    {
      "inputs": [
        {
          "internalType": "address",
          "name": "from",
          "type": "address"
        },
        {
          "internalType": "address",
          "name": "to",
          "type": "address"
        },
        {
          "internalType": "uint256",
          "name": "tokenId",
          "type": "uint256"
        },
        {
          "internalType": "bytes",
          "name": "data",
          "type": "bytes"
        }
      ],
      "name": "safeTransferFrom",
      "outputs": [],
      "stateMutability": "nonpayable",
      "type": "function"
    },
    {
      "inputs": [
        {
          "internalType": "address",
          "name": "operator",
          "type": "address"
        },
        {
          "internalType": "bool",
          "name": "approved",
          "type": "bool"
        }
      ],
      "name": "setApprovalForAll",
      "outputs": [],
      "stateMutability": "nonpayable",
      "type": "function"
    },
    {
      "inputs": [
        {
          "internalType": "bytes4",
          "name": "interfaceId",
          "type": "bytes4"
        }
      ],
      "name": "supportsInterface",
      "outputs": [
        {
          "internalType": "bool",
          "name": "",
          "type": "bool"
        }
      ],
      "stateMutability": "view",
      "type": "function"
    },
    {
      "inputs": [],
      "name": "symbol",
      "outputs": [
        {
          "internalType": "string",
          "name": "",
          "type": "string"
        }
      ],
      "stateMutability": "view",
      "type": "function"
    },
    {
      "inputs": [
        {
          "internalType": "uint256",
          "name": "index",
          "type": "uint256"
        }
      ],
      "name": "tokenByIndex",
      "outputs": [
        {
          "internalType": "uint256",
          "name": "",
          "type": "uint256"
        }
      ],
      "stateMutability": "view",
      "type": "function"
    },
    {
      "inputs": [
        {
          "internalType": "address",
          "name": "owner",
          "type": "address"
        },
        {
          "internalType": "uint256",
          "name": "index",
          "type": "uint256"
        }
      ],
      "name": "tokenOfOwnerByIndex",
      "outputs": [
        {
          "internalType": "uint256",
          "name": "",
          "type": "uint256"
        }
      ],
      "stateMutability": "view",
      "type": "function"
    },
    {
      "inputs": [
        {
          "internalType": "uint256",
          "name": "tokenId",
          "type": "uint256"
        }
      ],
      "name": "tokenURI",
      "outputs": [
        {
          "internalType": "string",
          "name": "",
          "type": "string"
        }
      ],
      "stateMutability": "view",
      "type": "function"
    },
    {
      "inputs": [],
      "name": "totalSupply",
      "outputs": [
        {
          "internalType": "uint256",
          "name": "",
          "type": "uint256"
        }
      ],
      "stateMutability": "view",
      "type": "function"
    },
    {
      "inputs": [
        {
          "internalType": "address",
          "name": "from",
          "type": "address"
        },
        {
          "internalType": "address",
          "name": "to",
          "type": "address"
        },
        {
          "internalType": "uint256",
          "name": "tokenId",
          "type": "uint256"
        }
      ],
      "name": "transferFrom",
      "outputs": [],
      "stateMutability": "nonpayable",
      "type": "function"
    },
    {
      "inputs": [
        {
          "internalType": "address",
          "name": "newOwner",
          "type": "address"
        }
      ],
      "name": "transferOwnership",
      "outputs": [],
      "stateMutability": "nonpayable",
      "type": "function"
    }
  ],
  "bytecode": "0x60806040523480156200001157600080fd5b50604080518082018252601381527f596f75724544552043726564656e7469616c73000000000000000000000000006020808301918252835180850190945260048452635945445560e01b908401528151919291620000739160009162000102565b5080516200008990600190602084019062000102565b505050620000a6620000a0620000ac60201b60201c565b620000b0565b620001e5565b3390565b600b80546001600160a01b038381166001600160a01b0319831681179093556040519116919082907f8be0079c531659141344cd1fd0a4f28419497f9722a3daafe3b4186f6b6457e090600090a35050565b8280546200011090620001a8565b90600052602060002090601f0160209004810192826200013457600085556200017f565b82601f106200014f57805160ff19168380011785556200017f565b828001600101855582156200017f579182015b828111156200017f57825182559160200191906001019062000162565b506200018d92915062000191565b5090565b5b808211156200018d576000815560010162000192565b600181811c90821680620001bd57607f821691505b60208210811415620001df57634e487b7160e01b600052602260045260246000fd5b50919050565b611f4880620001f56000396000f3fe608060405234801561001057600080fd5b50600436106101575760003560e01c80636352211e116100c3578063a22cb4651161007c578063a22cb465146102e3578063b88d4fde146102f6578063bec6501514610309578063c87b56dd1461031c578063e985e9c51461032f578063f2fde38b1461036b57600080fd5b80636352211e1461028957806370a082311461029c578063715018a6146102af5780638da5cb5b146102b757806390c7c49c146102c857806395d89b41146102db57600080fd5b806323b872dd1161011557806323b872dd146101fe5780632f745c591461021157806331ba19661461022457806342842e0e14610250578063436693d5146102635780634f6ccce71461027657600080fd5b80626296791461015c57806301ffc9a71461017157806306fdde0314610199578063081812fc146101ae578063095ea7b3146101d957806318160ddd146101ec575b600080fd5b61016f61016a366004611abb565b61037e565b005b61018461017f366004611c7d565b6103cf565b60405190151581526020015b60405180910390f35b6101a16103e0565b6040516101909190611d65565b6101c16101bc366004611cb5565b610472565b6040516001600160a01b039091168152602001610190565b61016f6101e7366004611c54565b610499565b6009545b604051908152602001610190565b61016f61020c366004611b07565b6105b4565b6101f061021f366004611c54565b6105e5565b610184610232366004611abb565b6001600160a01b03166000908152600e602052604090205460ff1690565b61016f61025e366004611b07565b61067b565b61016f610271366004611abb565b610696565b6101f0610284366004611cb5565b6106ea565b6101c1610297366004611cb5565b61078b565b6101f06102aa366004611abb565b6107eb565b61016f610871565b600b546001600160a01b03166101c1565b6101f06102d6366004611bf5565b610885565b6101a161097b565b61016f6102f1366004611bbb565b61098a565b61016f610304366004611b42565b610999565b6101c1610317366004611cb5565b6109d1565b6101a161032a366004611cb5565b610a48565b61018461033d366004611ad5565b6001600160a01b03918216600090815260056020908152604080832093909416825291909152205460ff1690565b61016f610379366004611abb565b610a53565b610386610acc565b6001600160a01b0381166000818152600e6020526040808220805460ff19169055517f95a4c2ae425bb769549aa1a911911ff57c17ae811ae8c8962d0b9746fcb153979190a250565b60006103da82610b26565b92915050565b6060600080546103ef90611eab565b80601f016020809104026020016040519081016040528092919081815260200182805461041b90611eab565b80156104685780601f1061043d57610100808354040283529160200191610468565b820191906000526020600020905b81548152906001019060200180831161044b57829003601f168201915b5050505050905090565b600061047d82610b4b565b506000908152600460205260409020546001600160a01b031690565b60006104a48261078b565b9050806001600160a01b0316836001600160a01b031614156105175760405162461bcd60e51b815260206004820152602160248201527f4552433732313a20617070726f76616c20746f2063757272656e74206f776e656044820152603960f91b60648201526084015b60405180910390fd5b336001600160a01b03821614806105335750610533813361033d565b6105a55760405162461bcd60e51b815260206004820152603d60248201527f4552433732313a20617070726f76652063616c6c6572206973206e6f7420746f60448201527f6b656e206f776e6572206f7220617070726f76656420666f7220616c6c000000606482015260840161050e565b6105af8383610baa565b505050565b6105be3382610c18565b6105da5760405162461bcd60e51b815260040161050e90611d78565b6105af838383610c97565b60006105f0836107eb565b82106106525760405162461bcd60e51b815260206004820152602b60248201527f455243373231456e756d657261626c653a206f776e657220696e646578206f7560448201526a74206f6620626f756e647360a81b606482015260840161050e565b506001600160a01b03919091166000908152600760209081526040808320938352929052205490565b6105af83838360405180602001604052806000815250610999565b61069e610acc565b6001600160a01b0381166000818152600e6020526040808220805460ff19166001179055517f8b4006ca14f23d4e7aa8d120d1ab7c3761d650eefac1a5d6732dbea94b54ea249190a250565b60006106f560095490565b82106107585760405162461bcd60e51b815260206004820152602c60248201527f455243373231456e756d657261626c653a20676c6f62616c20696e646578206f60448201526b7574206f6620626f756e647360a01b606482015260840161050e565b6009828154811061077957634e487b7160e01b600052603260045260246000fd5b90600052602060002001549050919050565b6000818152600260205260408120546001600160a01b0316806103da5760405162461bcd60e51b8152602060048201526018602482015277115490cdcc8c4e881a5b9d985b1a59081d1bdad95b88125160421b604482015260640161050e565b60006001600160a01b0382166108555760405162461bcd60e51b815260206004820152602960248201527f4552433732313a2061646472657373207a65726f206973206e6f7420612076616044820152683634b21037bbb732b960b91b606482015260840161050e565b506001600160a01b031660009081526003602052604090205490565b610879610acc565b6108836000610e08565b565b336000908152600e602052604081205460ff166108ef5760405162461bcd60e51b815260206004820152602260248201527f43616c6c6572206973206e6f7420616e20617574686f72697a6564206973737560448201526132b960f11b606482015260840161050e565b6108fd600c80546001019055565b6000610908600c5490565b90506109148482610e5a565b61091e8184610e74565b6000818152600d602052604080822080546001600160a01b03191633908117909155905190916001600160a01b0387169184917fd3bd681d2fe91fda330d69feca5dc6a668f4862360861444de295f833e35105391a49392505050565b6060600180546103ef90611eab565b610995338383610f46565b5050565b6109a33383610c18565b6109bf5760405162461bcd60e51b815260040161050e90611d78565b6109cb84848484611015565b50505050565b6000818152600260205260408120546001600160a01b0316610a2c5760405162461bcd60e51b8152602060048201526014602482015273151bdad95b88191bd95cc81b9bdd08195e1a5cdd60621b604482015260640161050e565b506000908152600d60205260409020546001600160a01b031690565b60606103da82611048565b610a5b610acc565b6001600160a01b038116610ac05760405162461bcd60e51b815260206004820152602660248201527f4f776e61626c653a206e6577206f776e657220697320746865207a65726f206160448201526564647265737360d01b606482015260840161050e565b610ac981610e08565b50565b600b546001600160a01b031633146108835760405162461bcd60e51b815260206004820181905260248201527f4f776e61626c653a2063616c6c6572206973206e6f7420746865206f776e6572604482015260640161050e565b60006001600160e01b0319821663780e9d6360e01b14806103da57506103da82611151565b6000818152600260205260409020546001600160a01b0316610ac95760405162461bcd60e51b8152602060048201526018602482015277115490cdcc8c4e881a5b9d985b1a59081d1bdad95b88125160421b604482015260640161050e565b600081815260046020526040902080546001600160a01b0319166001600160a01b0384169081179091558190610bdf8261078b565b6001600160a01b03167f8c5be1e5ebec7d5bd14f71427d1e84f3dd0314c0f7b2291e5b200ac8c7c3b92560405160405180910390a45050565b600080610c248361078b565b9050806001600160a01b0316846001600160a01b03161480610c6b57506001600160a01b0380821660009081526005602090815260408083209388168352929052205460ff165b80610c8f5750836001600160a01b0316610c8484610472565b6001600160a01b0316145b949350505050565b826001600160a01b0316610caa8261078b565b6001600160a01b031614610cd05760405162461bcd60e51b815260040161050e90611e17565b6001600160a01b038216610d325760405162461bcd60e51b8152602060048201526024808201527f4552433732313a207472616e7366657220746f20746865207a65726f206164646044820152637265737360e01b606482015260840161050e565b610d3f8383836001611176565b826001600160a01b0316610d528261078b565b6001600160a01b031614610d785760405162461bcd60e51b815260040161050e90611e17565b600081815260046020908152604080832080546001600160a01b03199081169091556001600160a01b0387811680865260038552838620805460001901905590871680865283862080546001019055868652600290945282852080549092168417909155905184937fddf252ad1be2c89b69c2b068fc378daa952ba7f163c4a11628f55a4df523b3ef91a4505050565b600b80546001600160a01b038381166001600160a01b0319831681179093556040519116919082907f8be0079c531659141344cd1fd0a4f28419497f9722a3daafe3b4186f6b6457e090600090a35050565b610995828260405180602001604052806000815250611182565b6000828152600260205260409020546001600160a01b0316610eef5760405162461bcd60e51b815260206004820152602e60248201527f45524337323155524953746f726167653a2055524920736574206f66206e6f6e60448201526d32bc34b9ba32b73a103a37b5b2b760911b606482015260840161050e565b60008281526006602090815260409091208251610f0e92840190611990565b506040518281527ff8e1a15aba9398e019f0b49df1a4fde98ee17ae345cb5f6b5e2c27f5033e8ce79060200160405180910390a15050565b816001600160a01b0316836001600160a01b03161415610fa85760405162461bcd60e51b815260206004820152601960248201527f4552433732313a20617070726f766520746f2063616c6c657200000000000000604482015260640161050e565b6001600160a01b03838116600081815260056020908152604080832094871680845294825291829020805460ff191686151590811790915591519182527f17307eab39ab6107e8899845ad3d59bd9653f200f220920489ca2b5937696c31910160405180910390a3505050565b611020848484610c97565b61102c848484846111b5565b6109cb5760405162461bcd60e51b815260040161050e90611dc5565b606061105382610b4b565b6000828152600660205260408120805461106c90611eab565b80601f016020809104026020016040519081016040528092919081815260200182805461109890611eab565b80156110e55780601f106110ba576101008083540402835291602001916110e5565b820191906000526020600020905b8154815290600101906020018083116110c857829003601f168201915b50505050509050600061110360408051602081019091526000815290565b9050805160001415611116575092915050565b815115611148578082604051602001611130929190611cf9565b60405160208183030381529060405292505050919050565b610c8f846112c2565b60006001600160e01b03198216632483248360e11b14806103da57506103da82611336565b6109cb84848484611386565b61118c83836114ba565b61119960008484846111b5565b6105af5760405162461bcd60e51b815260040161050e90611dc5565b60006001600160a01b0384163b156112b757604051630a85bd0160e11b81526001600160a01b0385169063150b7a02906111f9903390899088908890600401611d28565b602060405180830381600087803b15801561121357600080fd5b505af1925050508015611243575060408051601f3d908101601f1916820190925261124091810190611c99565b60015b61129d573d808015611271576040519150601f19603f3d011682016040523d82523d6000602084013e611276565b606091505b5080516112955760405162461bcd60e51b815260040161050e90611dc5565b805181602001fd5b6001600160e01b031916630a85bd0160e11b149050610c8f565b506001949350505050565b60606112cd82610b4b565b60006112e460408051602081019091526000815290565b90506000815111611304576040518060200160405280600081525061132f565b8061130e84611653565b60405160200161131f929190611cf9565b6040516020818303038152906040525b9392505050565b60006001600160e01b031982166380ac58cd60e01b148061136757506001600160e01b03198216635b5e139f60e01b145b806103da57506301ffc9a760e01b6001600160e01b03198316146103da565b60018111156113f55760405162461bcd60e51b815260206004820152603560248201527f455243373231456e756d657261626c653a20636f6e7365637574697665207472604482015274185b9cd9995c9cc81b9bdd081cdd5c1c1bdc9d1959605a1b606482015260840161050e565b816001600160a01b0385166114515761144c81600980546000838152600a60205260408120829055600182018355919091527f6e1540171b6c0c960b71a7020d9f60077f6af931a8bbf590da0223dacf75c7af0155565b611474565b836001600160a01b0316856001600160a01b0316146114745761147485826116fe565b6001600160a01b0384166114905761148b8161179b565b6114b3565b846001600160a01b0316846001600160a01b0316146114b3576114b38482611874565b5050505050565b6001600160a01b0382166115105760405162461bcd60e51b815260206004820181905260248201527f4552433732313a206d696e7420746f20746865207a65726f2061646472657373604482015260640161050e565b6000818152600260205260409020546001600160a01b0316156115755760405162461bcd60e51b815260206004820152601c60248201527f4552433732313a20746f6b656e20616c7265616479206d696e74656400000000604482015260640161050e565b611583600083836001611176565b6000818152600260205260409020546001600160a01b0316156115e85760405162461bcd60e51b815260206004820152601c60248201527f4552433732313a20746f6b656e20616c7265616479206d696e74656400000000604482015260640161050e565b6001600160a01b038216600081815260036020908152604080832080546001019055848352600290915280822080546001600160a01b0319168417905551839291907fddf252ad1be2c89b69c2b068fc378daa952ba7f163c4a11628f55a4df523b3ef908290a45050565b60606000611660836118b8565b600101905060008167ffffffffffffffff81111561168e57634e487b7160e01b600052604160045260246000fd5b6040519080825280601f01601f1916602001820160405280156116b8576020820181803683370190505b5090508181016020015b600019016f181899199a1a9b1b9c1cb0b131b232b360811b600a86061a8153600a85049450846116f1576116f6565b6116c2565b509392505050565b6000600161170b846107eb565b6117159190611e5c565b600083815260086020526040902054909150808214611768576001600160a01b03841660009081526007602090815260408083208584528252808320548484528184208190558352600890915290208190555b5060009182526008602090815260408084208490556001600160a01b039094168352600781528383209183525290812055565b6009546000906117ad90600190611e5c565b6000838152600a6020526040812054600980549394509092849081106117e357634e487b7160e01b600052603260045260246000fd5b90600052602060002001549050806009838154811061181257634e487b7160e01b600052603260045260246000fd5b6000918252602080832090910192909255828152600a9091526040808220849055858252812055600980548061185857634e487b7160e01b600052603160045260246000fd5b6001900381819060005260206000200160009055905550505050565b600061187f836107eb565b6001600160a01b039093166000908152600760209081526040808320868452825280832085905593825260089052919091209190915550565b60008072184f03e93ff9f4daa797ed6e38ed64bf6a1f0160401b83106118f75772184f03e93ff9f4daa797ed6e38ed64bf6a1f0160401b830492506040015b6d04ee2d6d415b85acef81000000008310611923576d04ee2d6d415b85acef8100000000830492506020015b662386f26fc10000831061194157662386f26fc10000830492506010015b6305f5e1008310611959576305f5e100830492506008015b612710831061196d57612710830492506004015b6064831061197f576064830492506002015b600a83106103da5760010192915050565b82805461199c90611eab565b90600052602060002090601f0160209004810192826119be5760008555611a04565b82601f106119d757805160ff1916838001178555611a04565b82800160010185558215611a04579182015b82811115611a045782518255916020019190600101906119e9565b50611a10929150611a14565b5090565b5b80821115611a105760008155600101611a15565b600067ffffffffffffffff80841115611a4457611a44611ee6565b604051601f8501601f19908116603f01168101908282118183101715611a6c57611a6c611ee6565b81604052809350858152868686011115611a8557600080fd5b858560208301376000602087830101525050509392505050565b80356001600160a01b0381168114611ab657600080fd5b919050565b600060208284031215611acc578081fd5b61132f82611a9f565b60008060408385031215611ae7578081fd5b611af083611a9f565b9150611afe60208401611a9f565b90509250929050565b600080600060608486031215611b1b578081fd5b611b2484611a9f565b9250611b3260208501611a9f565b9150604084013590509250925092565b60008060008060808587031215611b57578081fd5b611b6085611a9f565b9350611b6e60208601611a9f565b925060408501359150606085013567ffffffffffffffff811115611b90578182fd5b8501601f81018713611ba0578182fd5b611baf87823560208401611a29565b91505092959194509250565b60008060408385031215611bcd578182fd5b611bd683611a9f565b915060208301358015158114611bea578182fd5b809150509250929050565b60008060408385031215611c07578182fd5b611c1083611a9f565b9150602083013567ffffffffffffffff811115611c2b578182fd5b8301601f81018513611c3b578182fd5b611c4a85823560208401611a29565b9150509250929050565b60008060408385031215611c66578182fd5b611c6f83611a9f565b946020939093013593505050565b600060208284031215611c8e578081fd5b813561132f81611efc565b600060208284031215611caa578081fd5b815161132f81611efc565b600060208284031215611cc6578081fd5b5035919050565b60008151808452611ce5816020860160208601611e7f565b601f01601f19169290920160200192915050565b60008351611d0b818460208801611e7f565b835190830190611d1f818360208801611e7f565b01949350505050565b6001600160a01b0385811682528416602082015260408101839052608060608201819052600090611d5b90830184611ccd565b9695505050505050565b60208152600061132f6020830184611ccd565b6020808252602d908201527f4552433732313a2063616c6c6572206973206e6f7420746f6b656e206f776e6560408201526c1c881bdc88185c1c1c9bdd9959609a1b606082015260800190565b60208082526032908201527f4552433732313a207472616e7366657220746f206e6f6e20455243373231526560408201527131b2b4bb32b91034b6b83632b6b2b73a32b960711b606082015260800190565b60208082526025908201527f4552433732313a207472616e736665722066726f6d20696e636f72726563742060408201526437bbb732b960d91b606082015260800190565b600082821015611e7a57634e487b7160e01b81526011600452602481fd5b500390565b60005b83811015611e9a578181015183820152602001611e82565b838111156109cb5750506000910152565b600181811c90821680611ebf57607f821691505b60208210811415611ee057634e487b7160e01b600052602260045260246000fd5b50919050565b634e487b7160e01b600052604160045260246000fd5b6001600160e01b031981168114610ac957600080fdfea2646970667358221220d57e465e569900181e0634a8efd20a893b5fab69f6afc7fed3dc4fdc4d1d2aa164736f6c63430008040033",
  "linkReferences": {},
  "deployedLinkReferences": {}
}